{"abi":[{"type":"function","name":"balances","inputs":[{"name":"","type":"address","internalType":"address"}],"outputs":[{"name":"","type":"uint256","internalType":"uint256"}],"stateMutability":"view"},{"type":"function","name":"mint","inputs":[{"name":"to","type":"address","internalType":"address"},{"name":"amount","type":"uint256","internalType":"uint256"}],"outputs":[],"stateMutability":"nonpayable"}],"bytecode":{"object":"0x6080604052348015600e575f5ffd5b506102a68061001c5f395ff3fe608060405234801561000f575f5ffd5b5060043610610034575f3560e01c806327e235e31461003857806340c10f1914610068575b5f5ffd5b610052600480360381019061004d919061014c565b610084565b60405161005f919061018f565b60405180910390f35b610082600480360381019061007d91906101d2565b610098565b005b5f602052805f5260405f205f915090505481565b805f5f8473ffffffffffffffffffffffffffffffffffffffff1673ffffffffffffffffffffffffffffffffffffffff1681526020019081526020015f205f8282546100e3919061023d565b925050819055505050565b5f5ffd5b5f73ffffffffffffffffffffffffffffffffffffffff82169050919050565b5f61011b826100f2565b9050919050565b61012b81610111565b8114610135575f5ffd5b50565b5f8135905061014681610122565b92915050565b5f60208284031215610161576101606100ee565b5b5f61016e84828501610138565b91505092915050565b5f819050919050565b61018981610177565b82525050565b5f6020820190506101a25f830184610180565b92915050565b6101b181610177565b81146101bb575f5ffd5b50565b5f813590506101cc816101a8565b92915050565b5f5f604083850312156101e8576101e76100ee565b5b5f6101f585828601610138565b9250506020610206858286016101be565b9150509250929050565b7f4e487b71000000000000000000000000000000000000000000000000000000005f52601160045260245ffd5b5f61024782610177565b915061025283610177565b925082820190508082111561026a57610269610210565b5b9291505056fea2646970667358221220c091f6c46336f7f81827acaaa3134dcf419846a15533e70515585a28357db18964736f6c63430008210033","linkReferences":{}},"methodIdentifiers":{"balances(address)":"27e235e3","mint(address,uint256)":"40c10f19"},"id":0}