{"abi":[{"type":"function","name":"decrement","inputs":[{"name":"amount","type":"uint256","internalType":"uint256"}],"outputs":[],"stateMutability":"nonpayable"},{"type":"function","name":"value","inputs":[],"outputs":[{"name":"","type":"uint256","internalType":"uint256"}],"stateMutability":"view"}],"bytecode":{"object":"0x6080604052348015600e575f5ffd5b5061012e8061001c5f395ff3fe6080604052348015600e575f5ffd5b50600436106030575f3560e01c80633a9ebefd1460345780633fa4f24514604c575b5f5ffd5b604a60048036038101906046919060ae565b6066565b005b60526077565b604051605d919060e1565b60405180910390f35b805f5f828254039250508190555050565b5f5481565b5f5ffd5b5f819050919050565b6090816080565b81146099575f5ffd5b50565b5f8135905060a8816089565b92915050565b5f6020828403121560c05760bf607c565b5b5f60cb84828501609c565b91505092915050565b60db816080565b82525050565b5f60208201905060f25f83018460d4565b9291505056fea26469706673582212203fbfd64f9a048378760791e50915c36bc3b9b33ee9447f2b403d9c0e16660d7864736f6c63430008210033","linkReferences":{}},"methodIdentifiers":{"decrement(uint256)":"3a9ebefd","value()":"3fa4f245"},"id":0}